{
    "_format": "hh-sol-artifact-1",
    "contractName": "MarketSense",
    "sourceName": "contracts/Marketsense.sol",
    "abi": [
        {
            "inputs": [
                {
                    "internalType": "address",
                    "name": "_owner",
                    "type": "address"
                },
                {
                    "internalType": "address",
                    "name": "_ctfExchange",
                    "type": "address"
                },
                {
                    "internalType": "address",
                    "name": "_umaCtfAdapter",
                    "type": "address"
                }
            ],
            "stateMutability": "nonpayable",
            "type": "constructor"
        },
        {
            "inputs": [],
            "name": "AccessControlBadConfirmation",
            "type": "error"
        },
        {
            "inputs": [
                {
                    "internalType": "address",
                    "name": "account",
                    "type": "address"
                },
                {
                    "internalType": "bytes32",
                    "name": "neededRole",
                    "type": "bytes32"
                }
            ],
            "name": "AccessControlUnauthorizedAccount",
            "type": "error"
        },
        {
            "inputs": [],
            "name": "ContractOnlyAcceptsCTF",
            "type": "error"
        },
        {
            "inputs": [],
            "name": "EnforcedPause",
            "type": "error"
        },
        {
            "inputs": [],
            "name": "ExpectedPause",
            "type": "error"
        },
        {
            "inputs": [],
            "name": "InvalidShortString",
            "type": "error"
        },
        {
            "inputs": [],
            "name": "QuestionResolved",
            "type": "error"
        },
        {
            "inputs": [],
            "name": "ReentrancyGuardReentrantCall",
            "type": "error"
        },
        {
            "inputs": [
                {
                    "internalType": "address",
                    "name": "token",
                    "type": "address"
                }
            ],
            "name": "SafeERC20FailedOperation",
            "type": "error"
        },
        {
            "inputs": [
                {
                    "internalType": "string",
                    "name": "str",
                    "type": "string"
                }
            ],
            "name": "StringTooLong",
            "type": "error"
        },
        {
            "anonymous": false,
            "inputs": [],
            "name": "EIP712DomainChanged",
            "type": "event"
        },
        {
            "anonymous": false,
            "inputs": [
                {
                    "indexed": false,
                    "internalType": "address",
                    "name": "account",
                    "type": "address"
                }
            ],
            "name": "Paused",
            "type": "event"
        },
        {
            "anonymous": false,
            "inputs": [
                {
                    "indexed": true,
                    "internalType": "bytes32",
                    "name": "role",
                    "type": "bytes32"
                },
                {
                    "indexed": true,
                    "internalType": "bytes32",
                    "name": "previousAdminRole",
                    "type": "bytes32"
                },
                {
                    "indexed": true,
                    "internalType": "bytes32",
                    "name": "newAdminRole",
                    "type": "bytes32"
                }
            ],
            "name": "RoleAdminChanged",
            "type": "event"
        },
        {
            "anonymous": false,
            "inputs": [
                {
                    "indexed": true,
                    "internalType": "bytes32",
                    "name": "role",
                    "type": "bytes32"
                },
                {
                    "indexed": true,
                    "internalType": "address",
                    "name": "account",
                    "type": "address"
                },
                {
                    "indexed": true,
                    "internalType": "address",
                    "name": "sender",
                    "type": "address"
                }
            ],
            "name": "RoleGranted",
            "type": "event"
        },
        {
            "anonymous": false,
            "inputs": [
                {
                    "indexed": true,
                    "internalType": "bytes32",
                    "name": "role",
                    "type": "bytes32"
                },
                {
                    "indexed": true,
                    "internalType": "address",
                    "name": "account",
                    "type": "address"
                },
                {
                    "indexed": true,
                    "internalType": "address",
                    "name": "sender",
                    "type": "address"
                }
            ],
            "name": "RoleRevoked",
            "type": "event"
        },
        {
            "anonymous": false,
            "inputs": [
                {
                    "indexed": false,
                    "internalType": "address",
                    "name": "account",
                    "type": "address"
                }
            ],
            "name": "Unpaused",
            "type": "event"
        },
        {
            "inputs": [],
            "name": "CTF",
            "outputs": [
                {
                    "internalType": "contract IConditionalTokens",
                    "name": "",
                    "type": "address"
                }
            ],
            "stateMutability": "view",
            "type": "function"
        },
        {
            "inputs": [],
            "name": "CTF_EXCHANGE",
            "outputs": [
                {
                    "internalType": "contract ICTFExchange",
                    "name": "",
                    "type": "address"
                }
            ],
            "stateMutability": "view",
            "type": "function"
        },
        {
            "inputs": [],
            "name": "DEFAULT_ADMIN_ROLE",
            "outputs": [
                {
                    "internalType": "bytes32",
                    "name": "",
                    "type": "bytes32"
                }
            ],
            "stateMutability": "view",
            "type": "function"
        },
        {
            "inputs": [],
            "name": "LOAN_TOKEN",
            "outputs": [
                {
                    "internalType": "contract IERC20",
                    "name": "",
                    "type": "address"
                }
            ],
            "stateMutability": "view",
            "type": "function"
        },
        {
            "inputs": [],
            "name": "UMA_CTF_ADAPTER",
            "outputs": [
                {
                    "internalType": "address",
                    "name": "",
                    "type": "address"
                }
            ],
            "stateMutability": "view",
            "type": "function"
        },
        {
            "inputs": [],
            "name": "eip712Domain",
            "outputs": [
                {
                    "internalType": "bytes1",
                    "name": "fields",
                    "type": "bytes1"
                },
                {
                    "internalType": "string",
                    "name": "name",
                    "type": "string"
                },
                {
                    "internalType": "string",
                    "name": "version",
                    "type": "string"
                },
                {
                    "internalType": "uint256",
                    "name": "chainId",
                    "type": "uint256"
                },
                {
                    "internalType": "address",
                    "name": "verifyingContract",
                    "type": "address"
                },
                {
                    "internalType": "bytes32",
                    "name": "salt",
                    "type": "bytes32"
                },
                {
                    "internalType": "uint256[]",
                    "name": "extensions",
                    "type": "uint256[]"
                }
            ],
            "stateMutability": "view",
            "type": "function"
        },
        {
            "inputs": [
                {
                    "internalType": "bytes32",
                    "name": "role",
                    "type": "bytes32"
                }
            ],
            "name": "getRoleAdmin",
            "outputs": [
                {
                    "internalType": "bytes32",
                    "name": "",
                    "type": "bytes32"
                }
            ],
            "stateMutability": "view",
            "type": "function"
        },
        {
            "inputs": [
                {
                    "internalType": "bytes32",
                    "name": "role",
                    "type": "bytes32"
                },
                {
                    "internalType": "address",
                    "name": "account",
                    "type": "address"
                }
            ],
            "name": "grantRole",
            "outputs": [],
            "stateMutability": "nonpayable",
            "type": "function"
        },
        {
            "inputs": [
                {
                    "internalType": "bytes32",
                    "name": "role",
                    "type": "bytes32"
                },
                {
                    "internalType": "address",
                    "name": "account",
                    "type": "address"
                }
            ],
            "name": "hasRole",
            "outputs": [
                {
                    "internalType": "bool",
                    "name": "",
                    "type": "bool"
                }
            ],
            "stateMutability": "view",
            "type": "function"
        },
        {
            "inputs": [
                {
                    "internalType": "address",
                    "name": "",
                    "type": "address"
                },
                {
                    "internalType": "address",
                    "name": "",
                    "type": "address"
                },
                {
                    "internalType": "uint256[]",
                    "name": "",
                    "type": "uint256[]"
                },
                {
                    "internalType": "uint256[]",
                    "name": "",
                    "type": "uint256[]"
                },
                {
                    "internalType": "bytes",
                    "name": "",
                    "type": "bytes"
                }
            ],
            "name": "onERC1155BatchReceived",
            "outputs": [
                {
                    "internalType": "bytes4",
                    "name": "",
                    "type": "bytes4"
                }
            ],
            "stateMutability": "nonpayable",
            "type": "function"
        },
        {
            "inputs": [
                {
                    "internalType": "address",
                    "name": "",
                    "type": "address"
                },
                {
                    "internalType": "address",
                    "name": "",
                    "type": "address"
                },
                {
                    "internalType": "uint256",
                    "name": "",
                    "type": "uint256"
                },
                {
                    "internalType": "uint256",
                    "name": "",
                    "type": "uint256"
                },
                {
                    "internalType": "bytes",
                    "name": "",
                    "type": "bytes"
                }
            ],
            "name": "onERC1155Received",
            "outputs": [
                {
                    "internalType": "bytes4",
                    "name": "",
                    "type": "bytes4"
                }
            ],
            "stateMutability": "nonpayable",
            "type": "function"
        },
        {
            "inputs": [],
            "name": "owner",
            "outputs": [
                {
                    "internalType": "address",
                    "name": "",
                    "type": "address"
                }
            ],
            "stateMutability": "view",
            "type": "function"
        },
        {
            "inputs": [],
            "name": "paused",
            "outputs": [
                {
                    "internalType": "bool",
                    "name": "",
                    "type": "bool"
                }
            ],
            "stateMutability": "view",
            "type": "function"
        },
        {
            "inputs": [
                {
                    "internalType": "uint256",
                    "name": "amountForPrediction",
                    "type": "uint256"
                },
                {
                    "internalType": "bytes32",
                    "name": "predictQuestionId",
                    "type": "bytes32"
                },
                {
                    "internalType": "uint256",
                    "name": "positionId",
                    "type": "uint256"
                }
            ],
            "name": "predict",
            "outputs": [],
            "stateMutability": "nonpayable",
            "type": "function"
        },
        {
            "inputs": [
                {
                    "internalType": "uint256",
                    "name": "positionId",
                    "type": "uint256"
                }
            ],
            "name": "redeem",
            "outputs": [],
            "stateMutability": "nonpayable",
            "type": "function"
        },
        {
            "inputs": [
                {
                    "internalType": "bytes32",
                    "name": "role",
                    "type": "bytes32"
                },
                {
                    "internalType": "address",
                    "name": "callerConfirmation",
                    "type": "address"
                }
            ],
            "name": "renounceRole",
            "outputs": [],
            "stateMutability": "nonpayable",
            "type": "function"
        },
        {
            "inputs": [
                {
                    "internalType": "bytes32",
                    "name": "role",
                    "type": "bytes32"
                },
                {
                    "internalType": "address",
                    "name": "account",
                    "type": "address"
                }
            ],
            "name": "revokeRole",
            "outputs": [],
            "stateMutability": "nonpayable",
            "type": "function"
        },
        {
            "inputs": [
                {
                    "internalType": "bytes4",
                    "name": "interfaceId",
                    "type": "bytes4"
                }
            ],
            "name": "supportsInterface",
            "outputs": [
                {
                    "internalType": "bool",
                    "name": "",
                    "type": "bool"
                }
            ],
            "stateMutability": "view",
            "type": "function"
        }
    ],
    "bytecode": "0x6101a060405234801561001157600080fd5b50604051612c41380380612c4183398181016040528101906100339190610645565b6040518060400160405280600b81526020017f6d61726b657453656e73650000000000000000000000000000000000000000008152506040518060400160405280600181526020017f31000000000000000000000000000000000000000000000000000000000000008152506100b360018361035660201b90919060201c565b61012081815250506100cf60028261035660201b90919060201c565b6101408181525050818051906020012060e08181525050808051906020012061010081815250504660a0818152505061010c6103a660201b60201c565b608081815250503073ffffffffffffffffffffffffffffffffffffffff1660c08173ffffffffffffffffffffffffffffffffffffffff168152505050506000600360006101000a81548160ff02191690831515021790555060016004819055508173ffffffffffffffffffffffffffffffffffffffff166101808173ffffffffffffffffffffffffffffffffffffffff16815250506101805173ffffffffffffffffffffffffffffffffffffffff16635c1548fb6040518163ffffffff1660e01b8152600401602060405180830381865afa1580156101ef573d6000803e3d6000fd5b505050506040513d601f19601f820116820180604052508101906102139190610698565b600860006101000a81548173ffffffffffffffffffffffffffffffffffffffff021916908373ffffffffffffffffffffffffffffffffffffffff1602179055508073ffffffffffffffffffffffffffffffffffffffff166101608173ffffffffffffffffffffffffffffffffffffffff16815250506101805173ffffffffffffffffffffffffffffffffffffffff16633b521d786040518163ffffffff1660e01b8152600401602060405180830381865afa1580156102d6573d6000803e3d6000fd5b505050506040513d601f19601f820116820180604052508101906102fa9190610698565b600960006101000a81548173ffffffffffffffffffffffffffffffffffffffff021916908373ffffffffffffffffffffffffffffffffffffffff16021790555061034d6000801b8461040160201b60201c565b50505050610baf565b600060208351101561037857610371836104fe60201b60201c565b90506103a0565b826103888361056660201b60201c565b60000190816103979190610915565b5060ff60001b90505b92915050565b60007f8b73c3c69bb8fe3d512ecc4cf759cc79239f7b179b0ffacaa9a75d522b39400f60e0516101005146306040516020016103e6959493929190610a1e565b60405160208183030381529060405280519060200120905090565b6000610413838361057060201b60201c565b6104f357600160008085815260200190815260200160002060000160008473ffffffffffffffffffffffffffffffffffffffff1673ffffffffffffffffffffffffffffffffffffffff16815260200190815260200160002060006101000a81548160ff0219169083151502179055506104906105da60201b60201c565b73ffffffffffffffffffffffffffffffffffffffff168273ffffffffffffffffffffffffffffffffffffffff16847f2f8788117e7eff1d82e926ec794901d17c78024a50270940304540a733656f0d60405160405180910390a4600190506104f8565b600090505b92915050565b600080829050601f8151111561054b57826040517f305a27a90000000000000000000000000000000000000000000000000000000081526004016105429190610af6565b60405180910390fd5b80518161055790610b48565b60001c1760001b915050919050565b6000819050919050565b600080600084815260200190815260200160002060000160008373ffffffffffffffffffffffffffffffffffffffff1673ffffffffffffffffffffffffffffffffffffffff16815260200190815260200160002060009054906101000a900460ff16905092915050565b600033905090565b600080fd5b600073ffffffffffffffffffffffffffffffffffffffff82169050919050565b6000610612826105e7565b9050919050565b61062281610607565b811461062d57600080fd5b50565b60008151905061063f81610619565b92915050565b60008060006060848603121561065e5761065d6105e2565b5b600061066c86828701610630565b935050602061067d86828701610630565b925050604061068e86828701610630565b9150509250925092565b6000602082840312156106ae576106ad6105e2565b5b60006106bc84828501610630565b91505092915050565b600081519050919050565b7f4e487b7100000000000000000000000000000000000000000000000000000000600052604160045260246000fd5b7f4e487b7100000000000000000000000000000000000000000000000000000000600052602260045260246000fd5b6000600282049050600182168061074657607f821691505b602082108103610759576107586106ff565b5b50919050565b60008190508160005260206000209050919050565b60006020601f8301049050919050565b600082821b905092915050565b6000600883026107c17fffffffffffffffffffffffffffffffffffffffffffffffffffffffffffffffff82610784565b6107cb8683610784565b95508019841693508086168417925050509392505050565b6000819050919050565b6000819050919050565b600061081261080d610808846107e3565b6107ed565b6107e3565b9050919050565b6000819050919050565b61082c836107f7565b61084061083882610819565b848454610791565b825550505050565b600090565b610855610848565b610860818484610823565b505050565b5b818110156108845761087960008261084d565b600181019050610866565b5050565b601f8211156108c95761089a8161075f565b6108a384610774565b810160208510156108b2578190505b6108c66108be85610774565b830182610865565b50505b505050565b600082821c905092915050565b60006108ec600019846008026108ce565b1980831691505092915050565b600061090583836108db565b9150826002028217905092915050565b61091e826106c5565b67ffffffffffffffff811115610937576109366106d0565b5b610941825461072e565b61094c828285610888565b600060209050601f83116001811461097f576000841561096d578287015190505b61097785826108f9565b8655506109df565b601f19841661098d8661075f565b60005b828110156109b557848901518255600182019150602085019450602081019050610990565b868310156109d257848901516109ce601f8916826108db565b8355505b6001600288020188555050505b505050505050565b6000819050919050565b6109fa816109e7565b82525050565b610a09816107e3565b82525050565b610a1881610607565b82525050565b600060a082019050610a3360008301886109f1565b610a4060208301876109f1565b610a4d60408301866109f1565b610a5a6060830185610a00565b610a676080830184610a0f565b9695505050505050565b600082825260208201905092915050565b60005b83811015610aa0578082015181840152602081019050610a85565b60008484015250505050565b6000601f19601f8301169050919050565b6000610ac8826106c5565b610ad28185610a71565b9350610ae2818560208601610a82565b610aeb81610aac565b840191505092915050565b60006020820190508181036000830152610b108184610abd565b905092915050565b600081519050919050565b6000819050602082019050919050565b6000610b3f82516109e7565b80915050919050565b6000610b5382610b18565b82610b5d84610b23565b9050610b6881610b33565b92506020821015610ba857610ba37fffffffffffffffffffffffffffffffffffffffffffffffffffffffffffffffff83602003600802610784565b831692505b5050919050565b60805160a05160c05160e051610100516101205161014051610160516101805161202a610c1760003960006104710152600081816106cf015261095601526000610cc901526000610c8e0152600050506000505060005050600050506000505061202a6000f3fe608060405234801561001057600080fd5b50600436106101165760003560e01c806391d14854116100a2578063ad2c2f9011610071578063ad2c2f90146102d9578063bc197c81146102f5578063d547741f14610325578063db006a7514610341578063f23a6e611461035d57610116565b806391d148541461024f578063a217fddf1461027f578063a556489c1461029d578063a629b43f146102bb57610116565b806336568abe116100e957806336568abe146101b55780635c975abb146101d15780636ebcd5e2146101ef57806384b0196e1461020d5780638da5cb5b1461023157610116565b806301ffc9a71461011b57806317f37ae91461014b578063248a9ca3146101695780632f2ff15d14610199575b600080fd5b61013560048036038101906101309190611371565b61038d565b60405161014291906113b9565b60405180910390f35b61015361046f565b6040516101609190611453565b60405180910390f35b610183600480360381019061017e91906114a4565b610493565b60405161019091906114e0565b60405180910390f35b6101b360048036038101906101ae9190611539565b6104b2565b005b6101cf60048036038101906101ca9190611539565b6104d4565b005b6101d961054f565b6040516101e691906113b9565b60405180910390f35b6101f7610566565b604051610204919061159a565b60405180910390f35b61021561058c565b6040516102289796959493929190611766565b60405180910390f35b610239610636565b60405161024691906117ea565b60405180910390f35b61026960048036038101906102649190611539565b61065c565b60405161027691906113b9565b60405180910390f35b6102876106c6565b60405161029491906114e0565b60405180910390f35b6102a56106cd565b6040516102b291906117ea565b60405180910390f35b6102c36106f1565b6040516102d09190611826565b60405180910390f35b6102f360048036038101906102ee919061186d565b610717565b005b61030f600480360381019061030a9190611abd565b610849565b60405161031c9190611b9b565b60405180910390f35b61033f600480360381019061033a9190611539565b610866565b005b61035b60048036038101906103569190611bb6565b610888565b005b61037760048036038101906103729190611be3565b6109ef565b6040516103849190611b9b565b60405180910390f35b60007fda8def73000000000000000000000000000000000000000000000000000000007bffffffffffffffffffffffffffffffffffffffffffffffffffffffff1916827bffffffffffffffffffffffffffffffffffffffffffffffffffffffff1916148061045857507f4fdcdb47000000000000000000000000000000000000000000000000000000007bffffffffffffffffffffffffffffffffffffffffffffffffffffffff1916827bffffffffffffffffffffffffffffffffffffffffffffffffffffffff1916145b80610468575061046782610a0c565b5b9050919050565b7f000000000000000000000000000000000000000000000000000000000000000081565b6000806000838152602001908152602001600020600101549050919050565b6104bb82610493565b6104c481610a86565b6104ce8383610a9a565b50505050565b6104dc610b8b565b73ffffffffffffffffffffffffffffffffffffffff168173ffffffffffffffffffffffffffffffffffffffff1614610540576040517f6697b23200000000000000000000000000000000000000000000000000000000815260040160405180910390fd5b61054a8282610b93565b505050565b6000600360009054906101000a900460ff16905090565b600860009054906101000a900473ffffffffffffffffffffffffffffffffffffffff1681565b6000606080600080600060606105a0610c85565b6105a8610cc0565b46306000801b600067ffffffffffffffff8111156105c9576105c86118c5565b5b6040519080825280602002602001820160405280156105f75781602001602082028036833780820191505090505b507f0f00000000000000000000000000000000000000000000000000000000000000959493929190965096509650965096509650965090919293949596565b600a60009054906101000a900473ffffffffffffffffffffffffffffffffffffffff1681565b600080600084815260200190815260200160002060000160008373ffffffffffffffffffffffffffffffffffffffff1673ffffffffffffffffffffffffffffffffffffffff16815260200190815260200160002060009054906101000a900460ff16905092915050565b6000801b81565b7f000000000000000000000000000000000000000000000000000000000000000081565b600960009054906101000a900473ffffffffffffffffffffffffffffffffffffffff1681565b61071f610cfb565b610727610d41565b336005600083815260200190815260200160002060006101000a81548173ffffffffffffffffffffffffffffffffffffffff021916908373ffffffffffffffffffffffffffffffffffffffff160217905550816006600083815260200190815260200160002081905550826007600083815260200190815260200160002081905550600960009054906101000a900473ffffffffffffffffffffffffffffffffffffffff1673ffffffffffffffffffffffffffffffffffffffff1663f242432a333084876040518563ffffffff1660e01b815260040161080a9493929190611cb1565b600060405180830381600087803b15801561082457600080fd5b505af1158015610838573d6000803e3d6000fd5b50505050610844610d82565b505050565b6000610853610d8c565b63bc197c8160e01b905095945050505050565b61086f82610493565b61087881610a86565b6108828383610b93565b50505050565b610890610cfb565b610898610d41565b3373ffffffffffffffffffffffffffffffffffffffff166005600083815260200190815260200160002060009054906101000a900473ffffffffffffffffffffffffffffffffffffffff1673ffffffffffffffffffffffffffffffffffffffff1614610939576040517f08c379a000000000000000000000000000000000000000000000000000000000815260040161093090611d7b565b60405180910390fd5b60006006600083815260200190815260200160002054905061097b7f000000000000000000000000000000000000000000000000000000000000000082610e15565b6000600760008481526020019081526020016000205490506109e2303383600860009054906101000a900473ffffffffffffffffffffffffffffffffffffffff1673ffffffffffffffffffffffffffffffffffffffff16610e64909392919063ffffffff16565b50506109ec610d82565b50565b60006109f9610d8c565b63f23a6e6160e01b905095945050505050565b60007f4e2312e0000000000000000000000000000000000000000000000000000000007bffffffffffffffffffffffffffffffffffffffffffffffffffffffff1916827bffffffffffffffffffffffffffffffffffffffffffffffffffffffff19161480610a7f5750610a7e82610ee6565b5b9050919050565b610a9781610a92610b8b565b610f60565b50565b6000610aa6838361065c565b610b8057600160008085815260200190815260200160002060000160008473ffffffffffffffffffffffffffffffffffffffff1673ffffffffffffffffffffffffffffffffffffffff16815260200190815260200160002060006101000a81548160ff021916908315150217905550610b1d610b8b565b73ffffffffffffffffffffffffffffffffffffffff168273ffffffffffffffffffffffffffffffffffffffff16847f2f8788117e7eff1d82e926ec794901d17c78024a50270940304540a733656f0d60405160405180910390a460019050610b85565b600090505b92915050565b600033905090565b6000610b9f838361065c565b15610c7a57600080600085815260200190815260200160002060000160008473ffffffffffffffffffffffffffffffffffffffff1673ffffffffffffffffffffffffffffffffffffffff16815260200190815260200160002060006101000a81548160ff021916908315150217905550610c17610b8b565b73ffffffffffffffffffffffffffffffffffffffff168273ffffffffffffffffffffffffffffffffffffffff16847ff6391f5c32d9c69d2a47ea670b442974b53935d1edc7fd64eb21e047a839171b60405160405180910390a460019050610c7f565b600090505b92915050565b6060610cbb60017f0000000000000000000000000000000000000000000000000000000000000000610fb190919063ffffffff16565b905090565b6060610cf660027f0000000000000000000000000000000000000000000000000000000000000000610fb190919063ffffffff16565b905090565b600260045403610d37576040517f3ee5aeb500000000000000000000000000000000000000000000000000000000815260040160405180910390fd5b6002600481905550565b610d4961054f565b15610d80576040517fd93c066500000000000000000000000000000000000000000000000000000000815260040160405180910390fd5b565b6001600481905550565b600960009054906101000a900473ffffffffffffffffffffffffffffffffffffffff1673ffffffffffffffffffffffffffffffffffffffff163373ffffffffffffffffffffffffffffffffffffffff1614610e13576040517fb0553b7100000000000000000000000000000000000000000000000000000000815260040160405180910390fd5b565b600080610e228484611061565b915091508115610e5e576040517fcc69209c00000000000000000000000000000000000000000000000000000000815260040160405180910390fd5b50505050565b610ee0848573ffffffffffffffffffffffffffffffffffffffff166323b872dd868686604051602401610e9993929190611d9b565b604051602081830303815290604052915060e01b6020820180517bffffffffffffffffffffffffffffffffffffffffffffffffffffffff8381831617835250505050611135565b50505050565b60007f7965db0b000000000000000000000000000000000000000000000000000000007bffffffffffffffffffffffffffffffffffffffffffffffffffffffff1916827bffffffffffffffffffffffffffffffffffffffffffffffffffffffff19161480610f595750610f58826111d7565b5b9050919050565b610f6a828261065c565b610fad5780826040517fe2517d3f000000000000000000000000000000000000000000000000000000008152600401610fa4929190611dd2565b60405180910390fd5b5050565b606060ff60001b8314610fce57610fc783611241565b905061105b565b818054610fda90611e2a565b80601f016020809104026020016040519081016040528092919081815260200182805461100690611e2a565b80156110535780601f1061102857610100808354040283529160200191611053565b820191906000526020600020905b81548152906001019060200180831161103657829003601f168201915b505050505090505b92915050565b6000808373ffffffffffffffffffffffffffffffffffffffff166334e5e28e846040518263ffffffff1660e01b815260040161109d91906114e0565b600060405180830381865afa9250505080156110dc57506040513d6000823e3d601f19601f820116820180604052508101906110d99190611f07565b60015b611128573d806000811461110c576040519150601f19603f3d011682016040523d82523d6000602084013e611111565b606091505b50600092508061112090611f8d565b91505061112e565b60019250505b9250929050565b600080602060008451602086016000885af180611158576040513d6000823e3d81fd5b3d92506000519150506000821461117357600181141561118f565b60008473ffffffffffffffffffffffffffffffffffffffff163b145b156111d157836040517f5274afe70000000000000000000000000000000000000000000000000000000081526004016111c891906117ea565b60405180910390fd5b50505050565b60007f01ffc9a7000000000000000000000000000000000000000000000000000000007bffffffffffffffffffffffffffffffffffffffffffffffffffffffff1916827bffffffffffffffffffffffffffffffffffffffffffffffffffffffff1916149050919050565b6060600061124e836112b5565b90506000602067ffffffffffffffff81111561126d5761126c6118c5565b5b6040519080825280601f01601f19166020018201604052801561129f5781602001600182028036833780820191505090505b5090508181528360208201528092505050919050565b60008060ff8360001c169050601f8111156112fc576040517fb3512b0c00000000000000000000000000000000000000000000000000000000815260040160405180910390fd5b80915050919050565b6000604051905090565b600080fd5b600080fd5b60007fffffffff0000000000000000000000000000000000000000000000000000000082169050919050565b61134e81611319565b811461135957600080fd5b50565b60008135905061136b81611345565b92915050565b6000602082840312156113875761138661130f565b5b60006113958482850161135c565b91505092915050565b60008115159050919050565b6113b38161139e565b82525050565b60006020820190506113ce60008301846113aa565b92915050565b600073ffffffffffffffffffffffffffffffffffffffff82169050919050565b6000819050919050565b600061141961141461140f846113d4565b6113f4565b6113d4565b9050919050565b600061142b826113fe565b9050919050565b600061143d82611420565b9050919050565b61144d81611432565b82525050565b60006020820190506114686000830184611444565b92915050565b6000819050919050565b6114818161146e565b811461148c57600080fd5b50565b60008135905061149e81611478565b92915050565b6000602082840312156114ba576114b961130f565b5b60006114c88482850161148f565b91505092915050565b6114da8161146e565b82525050565b60006020820190506114f560008301846114d1565b92915050565b6000611506826113d4565b9050919050565b611516816114fb565b811461152157600080fd5b50565b6000813590506115338161150d565b92915050565b600080604083850312156115505761154f61130f565b5b600061155e8582860161148f565b925050602061156f85828601611524565b9150509250929050565b600061158482611420565b9050919050565b61159481611579565b82525050565b60006020820190506115af600083018461158b565b92915050565b60007fff0000000000000000000000000000000000000000000000000000000000000082169050919050565b6115ea816115b5565b82525050565b600081519050919050565b600082825260208201905092915050565b60005b8381101561162a57808201518184015260208101905061160f565b60008484015250505050565b6000601f19601f8301169050919050565b6000611652826115f0565b61165c81856115fb565b935061166c81856020860161160c565b61167581611636565b840191505092915050565b6000819050919050565b61169381611680565b82525050565b6116a2816114fb565b82525050565b600081519050919050565b600082825260208201905092915050565b6000819050602082019050919050565b6116dd81611680565b82525050565b60006116ef83836116d4565b60208301905092915050565b6000602082019050919050565b6000611713826116a8565b61171d81856116b3565b9350611728836116c4565b8060005b8381101561175957815161174088826116e3565b975061174b836116fb565b92505060018101905061172c565b5085935050505092915050565b600060e08201905061177b600083018a6115e1565b818103602083015261178d8189611647565b905081810360408301526117a18188611647565b90506117b0606083018761168a565b6117bd6080830186611699565b6117ca60a08301856114d1565b81810360c08301526117dc8184611708565b905098975050505050505050565b60006020820190506117ff6000830184611699565b92915050565b600061181082611420565b9050919050565b61182081611805565b82525050565b600060208201905061183b6000830184611817565b92915050565b61184a81611680565b811461185557600080fd5b50565b60008135905061186781611841565b92915050565b6000806000606084860312156118865761188561130f565b5b600061189486828701611858565b93505060206118a58682870161148f565b92505060406118b686828701611858565b9150509250925092565b600080fd5b7f4e487b7100000000000000000000000000000000000000000000000000000000600052604160045260246000fd5b6118fd82611636565b810181811067ffffffffffffffff8211171561191c5761191b6118c5565b5b80604052505050565b600061192f611305565b905061193b82826118f4565b919050565b600067ffffffffffffffff82111561195b5761195a6118c5565b5b602082029050602081019050919050565b600080fd5b600061198461197f84611940565b611925565b905080838252602082019050602084028301858111156119a7576119a661196c565b5b835b818110156119d057806119bc8882611858565b8452602084019350506020810190506119a9565b5050509392505050565b600082601f8301126119ef576119ee6118c0565b5b81356119ff848260208601611971565b91505092915050565b600080fd5b600067ffffffffffffffff821115611a2857611a276118c5565b5b611a3182611636565b9050602081019050919050565b82818337600083830152505050565b6000611a60611a5b84611a0d565b611925565b905082815260208101848484011115611a7c57611a7b611a08565b5b611a87848285611a3e565b509392505050565b600082601f830112611aa457611aa36118c0565b5b8135611ab4848260208601611a4d565b91505092915050565b600080600080600060a08688031215611ad957611ad861130f565b5b6000611ae788828901611524565b9550506020611af888828901611524565b945050604086013567ffffffffffffffff811115611b1957611b18611314565b5b611b25888289016119da565b935050606086013567ffffffffffffffff811115611b4657611b45611314565b5b611b52888289016119da565b925050608086013567ffffffffffffffff811115611b7357611b72611314565b5b611b7f88828901611a8f565b9150509295509295909350565b611b9581611319565b82525050565b6000602082019050611bb06000830184611b8c565b92915050565b600060208284031215611bcc57611bcb61130f565b5b6000611bda84828501611858565b91505092915050565b600080600080600060a08688031215611bff57611bfe61130f565b5b6000611c0d88828901611524565b9550506020611c1e88828901611524565b9450506040611c2f88828901611858565b9350506060611c4088828901611858565b925050608086013567ffffffffffffffff811115611c6157611c60611314565b5b611c6d88828901611a8f565b9150509295509295909350565b600082825260208201905092915050565b50565b6000611c9b600083611c7a565b9150611ca682611c8b565b600082019050919050565b600060a082019050611cc66000830187611699565b611cd36020830186611699565b611ce0604083018561168a565b611ced606083018461168a565b8181036080830152611cfe81611c8e565b905095945050505050565b7f4d61726b657453656e73653a204f6e6c7920707265646963746f722063616e2060008201527f72656465656d0000000000000000000000000000000000000000000000000000602082015250565b6000611d656026836115fb565b9150611d7082611d09565b604082019050919050565b60006020820190508181036000830152611d9481611d58565b9050919050565b6000606082019050611db06000830186611699565b611dbd6020830185611699565b611dca604083018461168a565b949350505050565b6000604082019050611de76000830185611699565b611df460208301846114d1565b9392505050565b7f4e487b7100000000000000000000000000000000000000000000000000000000600052602260045260246000fd5b60006002820490506001821680611e4257607f821691505b602082108103611e5557611e54611dfb565b5b50919050565b600081519050611e6a81611841565b92915050565b6000611e83611e7e84611940565b611925565b90508083825260208201905060208402830185811115611ea657611ea561196c565b5b835b81811015611ecf5780611ebb8882611e5b565b845260208401935050602081019050611ea8565b5050509392505050565b600082601f830112611eee57611eed6118c0565b5b8151611efe848260208601611e70565b91505092915050565b600060208284031215611f1d57611f1c61130f565b5b600082015167ffffffffffffffff811115611f3b57611f3a611314565b5b611f4784828501611ed9565b91505092915050565b600081519050919050565b6000819050602082019050919050565b6000611f778251611319565b80915050919050565b600082821b905092915050565b6000611f9882611f50565b82611fa284611f5b565b9050611fad81611f6b565b92506004821015611fed57611fe87fffffffff0000000000000000000000000000000000000000000000000000000083600403600802611f80565b831692505b505091905056fea2646970667358221220fbed1cb2ae0d53f4d32b25c229cc54fd39c2028de4918a59449fc10eda6f3f6764736f6c63430008190033",
    "linkReferences": {},
    "deployedLinkReferences": {}
}